S015000049464C46552D626C696E6B65722E7372656385
S11300000AC011C010C00FC00EC00DC00CC00BC080
S11300100AC009C008C011271FBFCFE5D0E0DEBF6A
S1130020CDBF44D0FDC0ECCF1BBB43E84DBB08950E
S113003041E050E0082F01C0440F0A95EAF762B18D
S113004070E002C0759567958A95E2F752B160FF3A
S113005002C0452729C0542B52B963EC79E06150A2
S11300607040E9F700C0000052B1542752B963ED63
S113007070E361507040E9F700C0000052B1542BA6
S113008052B963EC79E061507040E9F700C00000B8
S113009052B1542752B963ED70E361507040E9F7EF
S11300A000C0000052B1452B42B90895CF93DF93AD
S11300B000D000D000D0CDB7DEB746E041B9B4DF00
S11300C0EE9AEE99FECF49B350E060E070E0B72FAE
S11300D0A62F952F842F825D984FAF4FBF4FCF5FD0
S11300E0DF4F89939993A993B883C450D040CF5FCD
S11300F0DF4F4991599169917881C450D0404E5253
S11301005740610B710B972F862F752F642F25E0B5
S113011030E040E050E05DD031E0360FCF5FDF4F9C
S11301209881C150D040975993709F5FCA5FDF4F49
S11301309883C650D040CB5FDF4F1883C550D04062
S1130140CB5FDF4FA881C550D0403A1302C081E095
S11301506FDFCA5FDF4FB881C650D040CB5FDF4F3F
S11301604881C550D040B41302C082E061DFCB5F48
S1130170DF4F5881C550D0405F5FCB5FDF4F58835E
S1130180C550D0406FE37DE083E061507040804013
S1130190E1F700C00000351798F6CA5FDF4F988179
S11301A0C650D040951760F6CF5FDF4F4991599103
S11301B069917881C450D040425D584F6F4F7F4F52
S11301C0CF5FDF4F4993599369937883C450D040EC
S11301D08ECFA1E21A2FAA1BBB1BEA2FFB2F0DC047
S11301E0AA1FBB1FEE1FFF1FA217B307E407F507E3
S11301F020F0A21BB30BE40BF50B661F771F881FBF
S1130200991F1A9569F76095709580959095262F9A
S1130210372F482F592F6A2F7B2F8E2F9F2F08950A
S1070220F894FFCF7C
S9030000FC
