S00B0000506F432E7372656317
S11300000AC011C010C00FC00EC00DC00CC00BC080
S11300100AC009C008C011271FBFCFE5D0E0DEBF6A
S1130020CDBF40D0E5C0ECCF41E050E0082F01C087
S1130030440F0A95EAF762B170E002C075956795BE
S11300408A95E2F752B160FF02C0452729C0542BBC
S113005052B963EC79E061507040E9F700C00000E8
S113006052B1542752B963ED70E361507040E9F71F
S113007000C0000052B1542B52B963EC79E06150D6
S11300807040E9F700C0000052B1542752B963ED43
S113009070E361507040E9F700C0000052B1452B95
S11300A042B90895CF93DF9300D000D000D0CDB7EC
S11300B0DEB746E041B947E953E060E070E0CF5F66
S11300C0DF4F4993599369937883C450D040CF5FED
S11300D0DF4F6991799189919881C450D04025E08E
S11300E030E040E050E05DD031E0360FCF5FDF4FCD
S11300F05881C150D040595653705F5FCA5FDF4F7B
S11301005883C650D040CF5FDF4F499159916991D0
S11301107881C450D040425D584F6F4F7F4FCF5FBE
S1130120DF4F4993599369937883C450D040CB5F90
S1130130DF4F1883C550D040CB5FDF4F5881C55087
S1130140D040351302C081E06FDFCA5FDF4F6881A2
S1130150C650D040CB5FDF4F7881C550D040671385
S113016002C082E061DFCB5FDF4F4881C550D040E1
S11301704F5FCB5FDF4F4883C550D0405FE36DE0F6
S113018073E0515060407040E1F700C00000341744
S113019098F6CA5FDF4F5881C650D040541760F6B6
S11301A096CFA1E21A2FAA1BBB1BEA2FFB2F0DC06F
S11301B0AA1FBB1FEE1FFF1FA217B307E407F50713
S11301C020F0A21BB30BE40BF50B661F771F881FEF
S11301D0991F1A9569F76095709580959095262FCB
S11301E0372F482F592F6A2F7B2F8E2F9F2F08953B
S10701F0F894FFCFAD
S9030000FC
